:020000040800F2
:1000000000000320F1670008215B0008275B00085F
:100010002D5B0008335B0008395B0008000000001E
:10002000000000000000000000000000310E010888
:100030003F5B0008000000008110010805D800089F
:1000400041680008416800084168000841680008EC
:1000500041680008416800084168000841680008DC
:1000600041680008416800084168000841680008CC
:1000700041680008416800084D5B0008615B0008AA
:1000800041680008416800084168000841680008AC
:10009000416800084168000841680008416800089C
:1000A00041680008755B0008416800084168000865
:1000B000416800084168000841680008416800087C
:1000C000416800084168000841680008416800086C
:1000D000416800084168000841680008416800085C
:1000E000416800084168000841680008416800084C
:1000F0004168000841680008895B00084168000801
:10010000416800084168000841680008416800082B
:10011000416800084168000841680008416800081B
:100120004168000841680008416800089D5B0008BC
:1001300041680008B15B0008416800084168000898
:1001400041680008416800084168000841680008EB
:1001500041680008416800084168000841680008DB
:1001600041680008416800084168000841680008CB
:10017000416800084168000841680008000000006C
:1001800041680008416800084168000841680008AB
:10019000416800084168000841680008416800089B
:0C01A00041680008416800084168000840
:1001B00010B5054C237833B9044B13B10448AFF3A1
:1001C00000800123237010BDF40100200000000016
:1001D000E032020808B5034B1BB103490348AFF3F3
:1001E000008008BD00000000F8010020E032020895
:1001F000034613F8012B002AFBD1181A0138704767
:1002000001F0FF01102A2BDB10F0070F08D010F8C7
:10021000013B013A8B422DD010F0070F42B3F6D1CB
:10022000F0B441EA012141EA014122F007047FF0E4
:1002300000070023F0E80256083C85EA010586EA3B
:10024000010685FA47F5A3FA87F586FA47F6A5FA77
:1002500087F68EB9EED1F0BC01F0FF0102F0070283
:1002600032B110F8013B013A83EA010313B1F8D12E
:100270000020704701387047002D06BF354603380F
:10028000073815F0010F07D1013015F4807F02BF48
:10029000013015F4C03F0130F0BC0138704700BF99
:1002A00081F0004102E000BF83F0004330B54FEA27
:1002B00041044FEA430594EA050F08BF90EA020F94
:1002C0001FBF54EA000C55EA020C7FEA645C7FEA27
:1002D000655C00F0E2804FEA5454D4EB5555B8BF4A
:1002E0006D420CDD2C4480EA020281EA030382EABB
:1002F000000083EA010180EA020281EA0303362D4D
:1003000088BF30BD11F0004F4FEA01314FF4801C1F
:100310004CEA113102D0404261EB410113F0004F31
:100320004FEA03334CEA133302D0524263EB4303E8
:1003300094EA050F00F0A780A4F10104D5F1200E86
:100340000DDB02FA0EFC22FA05F2801841F10001E1
:1003500003FA0EF2801843FA05F359410EE0A5F1B5
:1003600020050EF1200E012A03FA0EFC28BF4CF0E6
:10037000020C43FA05F3C01851EBE37101F000459C
:1003800007D54FF0000EDCF1000C7EEB00006EEBA9
:100390000101B1F5801F1BD3B1F5001F0CD3490833
:1003A0005FEA30004FEA3C0C04F101044FEA44528A
:1003B00012F5800F80F09A80BCF1004F08BF5FEA11
:1003C000500C50F1000041EB045141EA050130BDF1
:1003D0005FEA4C0C404141EB0101013C28BFB1F503
:1003E000801FE9D291F0000F04BF01460020B1FA4E
:1003F00081F308BF2033A3F10B03B3F120020CDA21
:100400000C3208DD02F1140CC2F10C0201FA0CF0FE
:1004100021FA02F10CE002F11402D8BFC2F1200C63
:1004200001FA02F120FA0CFCDCBF41EA0C01904019
:10043000E41AA2BF01EB0451294330BD6FEA040462
:100440001F3C1CDA0C340EDC04F11404C4F120024D
:1004500020FA04F001FA02F340EA030021FA04F35F
:1004600045EA030130BDC4F10C04C4F1200220FAB6
:1004700002F001FA04F340EA0300294630BD21FAF4
:1004800004F0294630BD94F0000F83F4801306BFBA
:1004900081F480110134013D4EE77FEA645C18BFAE
:1004A0007FEA655C29D094EA050F08BF90EA020F45
:1004B00005D054EA000C04BF1946104630BD91EA3D
:1004C000030F1EBF0021002030BD5FEA545C05D140
:1004D0004000494128BF41F0004130BD14F580047F
:1004E0003CBF01F5801130BD01F0004545F0FE41F3
:1004F00041F470014FF0000030BD7FEA645C1ABF28
:10050000194610467FEA655C1CBF0B46024650EA5E
:10051000013406BF52EA033591EA030F41F400218A
:1005200030BD00BF90F0000F04BF0021704730B510
:100530004FF4806404F132044FF000054FF00001E5
:1005400050E700BF90F0000F04BF0021704730B5A6
:100550004FF4806404F1320410F0004548BF40427B
:100560004FF000013EE700BF42004FEAE2014FEAD0
:1005700031014FEA02701FBF12F07F4393F07F4FAB
:1005800081F06051704732F07F4208BF704793F0AE
:100590007F4F04BF41F40021704730B54FF46074C1
:1005A00001F0004521F000411CE700BF50EA0102C4
:1005B00008BF704730B54FF000050AE050EA01026D
:1005C00008BF704730B511F0004502D5404261EBDD
:1005D00041014FF4806404F132045FEA915C3FF41E
:1005E000D8AE4FF003025FEADC0C18BF03325FEABB
:1005F000DC0C18BF033202EBDC02C2F1200300FA6C
:1006000003FC20FA02F001FA03FE40EA0E0021FA90
:1006100002F11444BDE600BF70B54FF0FF0C4CF47E
:10062000E06C1CEA11541DBF1CEA135594EA0C0F30
:1006300095EA0C0F00F0DEF82C4481EA030621EA6B
:100640004C5123EA4C5350EA013518BF52EA0335A6
:1006500041F4801143F4801338D0A0FB02CE4FF058
:100660000005E1FB02E506F00042E0FB03E54FF088
:100670000006E1FB03569CF0000F18BF4EF0010E80
:10068000A4F1FF04B6F5007F64F5407404D25FEA7C
:100690004E0E6D4146EB060642EAC62141EA55512F
:1006A0004FEAC52040EA5E504FEACE2EB4F1FD0C71
:1006B00088BFBCF5E06F1ED8BEF1004F08BF5FEAEF
:1006C000500E50F1000041EB045170BD06F00046A1
:1006D00046EA010140EA020081EA0301B4EB5C044E
:1006E000C2BFD4EB0C0541EA045170BD41F4801146
:1006F0004FF0000E013C00F3AB8014F1360FDEBF6B
:10070000002001F0004170BDC4F10004203C35DA46
:100710000C341BDC04F11404C4F1200500FA05F3C9
:1007200020FA04F001FA05F240EA020001F000426A
:1007300021F0004110EBD37021FA04F642EB0601E0
:100740005EEA430E08BF20EAD37070BDC4F10C040A
:10075000C4F1200500FA04F320FA05F001FA04F2CE
:1007600040EA020001F0004110EBD37041F10001BA
:100770005EEA430E08BF20EAD37070BDC4F12005C5
:1007800000FA05F24EEA020E20FA04F301FA05F22D
:1007900043EA020321FA04F001F0004121FA04F2D5
:1007A00020EA020000EBD3705EEA430E08BF20EAA5
:1007B000D37070BD94F0000F0FD101F000464000DF
:1007C00041EB010111F4801F08BF013CF7D041EA61
:1007D000060195F0000F18BF704703F00046520065
:1007E00043EB030313F4801F08BF013DF7D043EA36
:1007F0000603704794EA0C0F0CEA135518BF95EAEC
:100800000C0F0CD050EA410618BF52EA4306D1D172
:1008100081EA030101F000414FF0000070BD50EA91
:10082000410606BF1046194652EA430619D094EA1B
:100830000C0F02D150EA013613D195EA0C0F05D105
:1008400052EA03361CBF104619460AD181EA030159
:1008500001F0004141F0FE4141F470014FF0000011
:1008600070BD41F0FE4141F4780170BD70B54FF0AC
:10087000FF0C4CF4E06C1CEA11541DBF1CEA13552C
:1008800094EA0C0F95EA0C0F00F0A7F8A4EB05040E
:1008900081EA030E52EA03354FEA013100F0888005
:1008A0004FEA03334FF0805545EA131343EA1263CE
:1008B0004FEA022245EA111545EA10654FEA002683
:1008C0000EF000419D4208BF964244F1FD0404F53C
:1008D000407402D25B084FEA3202B61A65EB030598
:1008E0005B084FEA32024FF480104FF4002CB6EB55
:1008F000020E75EB030E22BFB61A754640EA0C00D5
:100900005B084FEA3202B6EB020E75EB030E22BF14
:10091000B61A754640EA5C005B084FEA3202B6EB55
:10092000020E75EB030E22BFB61A754640EA9C0014
:100930005B084FEA3202B6EB020E75EB030E22BFE4
:10094000B61A754640EADC0055EA060E18D04FEAA2
:10095000051545EA16754FEA06164FEAC30343EA42
:1009600052734FEAC2025FEA1C1CC0D111F4801F0F
:100970000BD141EA00014FF000004FF0004CB6E708
:1009800011F4801F04BF01430020B4F1FD0C88BFA7
:10099000BCF5E06F3FF6AFAEB5EB030C04BFB6EBB2
:1009A000020C5FEA500C50F1000041EB045170BDA5
:1009B0000EF0004E4EEA113114EB5C04C2BFD4EBD2
:1009C0000C0541EA045170BD41F480114FF0000E56
:1009D000013C90E645EA060E8DE60CEA135594EAD2
:1009E0000C0F08BF95EA0C0F3FF43BAF94EA0C0FD5
:1009F0000AD150EA01347FF434AF95EA0C0F7FF44A
:100A000025AF104619462CE795EA0C0F06D152EA9D
:100A100003353FF4FDAE1046194622E750EA410681
:100A200018BF52EA43067FF4C5AE50EA41047FF492
:100A30000DAF52EA43057FF4EBAE12E74FF0FF3CF7
:100A400006E000BF4FF0010C02E000BF4FF0010CC8
:100A50004DF804CD4FEA410C7FEA6C5C4FEA430C41
:100A600018BF7FEA6C5C1BD001B050EA410C0CBF90
:100A700052EA430C91EA030F02BF90EA020F0020F2
:100A8000704710F1000F91EA030F58BF994208BF59
:100A900090422CBFD8176FEAE37040F00100704716
:100AA0004FEA410C7FEA6C5C02D150EA013C07D16D
:100AB0004FEA430C7FEA6C5CD6D152EA033CD3D0B8
:100AC0005DF8040B704700BF8446104662468C46B2
:100AD0001946634600E000BF01B5FFF7B7FF0028E5
:100AE00048BF10F1000F01BD4DF808EDFFF7F4FF0E
:100AF0000CBF012000205DF808FB00BF4DF808ED99
:100B0000FFF7EAFF34BF012000205DF808FB00BFBB
:100B10004DF808EDFFF7E0FF94BF012000205DF8DD
:100B200008FB00BF4DF808EDFFF7CEFF94BF012092
:100B300000205DF808FB00BF4DF808EDFFF7C4FF8B
:100B400034BF012000205DF808FB00BF4FEA410CD4
:100B50007FEA6C5C02D150EA013C0AD14FEA430CB7
:100B60007FEA6C5C02D152EA033C02D14FF00000F4
:100B700070474FF0010070474FEA410212F5001232
:100B800015D211D56FF47873B3EB625212D94FEAD4
:100B9000C12343F0004343EA505311F0004F23FABE
:100BA00002F018BF404270474FF00000704750EA13
:100BB000013005D111F0004008BF6FF000407047D0
:100BC0004FF00000704700BF4A0011D212F500122A
:100BD00011D20DD56FF47873B3EB62520ED44FEA95
:100BE000C12343F0004343EA505323FA02F0704715
:100BF0004FF00000704750EA013002D14FF0FF3053
:100C000070474FF0000070474FEA4102B2F1E043F5
:100C100024BFB3F5001CDCF1FE5C0DD901F0004CE3
:100C20004FEAC0024CEA5070B2F1004F40EB830033
:100C300008BF20F00100704711F0804F21D113F15F
:100C40003872BCBF01F00040704741F480114FEA98
:100C50005252C2F11802C2F1200C10FA0CF320FA21
:100C600002F018BF40F001004FEAC1234FEAD3233E
:100C700003FA0CFC40EA0C0023FA02F34FEA4303A8
:100C8000CCE77FEA625307D150EA01331EBF4FF031
:100C9000FE4040F44000704701F0004040F0FE404C
:100CA00040F40000704700BF53B94AB9002908BF9B
:100CB00000281CBF4FF0FF314FF0FF3000F06EB93D
:100CC000ADF1080C6DE904CE00F006F8DDF804E0A3
:100CD000DDE9022304B070472DE9F047089D044682
:100CE0008C46002B40F083808A42174647D9B2FADF
:100CF00082F242B1C2F1200024FA00F09140974004
:100D000040EA010C94404FEA1748230CBCFBF8F66C
:100D10001FFA87FE08FB16C143EA014306FB0EF1EA
:100D2000994209D9FB1806F1FF3080F019819942E8
:100D300040F21681023E3B445B1AA4B2B3FBF8F0CA
:100D400008FB103344EA034400FB0EFEA64509D914
:100D50003C1900F1FF3380F00581A64540F2028185
:100D600002383C4440EA0640A4EB0E0400261DB1C4
:100D7000D4400023C5E900433146BDE8F08702B9FD
:100D8000FFDEB2FA82F2002A50D1CB1B4FEA174E97
:100D90001FFA87F80126B3FBFEFC210C0EFB1C3367
:100DA00041EA034108FB0CF38B4207D979180CF197
:100DB000FF3002D28B4200F2E9808446C91AA3B206
:100DC000B1FBFEF00EFB101143EA014408FB00F8F2
:100DD000A04507D93C1900F1FF3302D2A04500F22B
:100DE000D9801846A4EB080440EA0C40BFE78B42C8
:100DF00009D9002D00F0B1800026C5E90001304678
:100E00003146BDE8F087B3FA83F6002E4AD18B4213
:100E100002D3824200F2B880841A61EB0301012000
:100E20008C46002DA8D0C5E9004CA5E7C2F12003EF
:100E300020FA03F6974001FA02F04FEA174ED94024
:100E40003043030CB1FBFEF61FFA87F80EFB1611B8
:100E500043EA014306FB08F1994204FA02F409D976
:100E6000FB1806F1FF3C80F08D80994240F28A80A9
:100E7000023E3B445B1A81B2B3FBFEF00EFB103323
:100E800041EA034100FB08F38B4207D9791800F1CE
:100E9000FF3C73D28B4271D902383944CB1A40EAF5
:100EA000064678E7C6F1200C03FA06F422FA0CF3A2
:100EB0001C4320FA0CF701FA06F34FEA144E21FA0C
:100EC0000CF11F433B0CB1FBFEF91FFA84F80EFB3B
:100ED000191143EA014109FB08FA8A4502FA06F2B0
:100EE00000FA06F308D9611809F1FF3048D28A45A3
:100EF00046D9A9F102092144A1EB0A01BFB2B1FB15
:100F0000FEF00EFB101147EA014700FB08F8B84558
:100F100007D9E71900F1FF312ED2B8452CD9023894
:100F2000274440EA0940A7EB0807A0FB02894F4588
:100F3000C64649461AD317D05DB1B3EB0E0267EB34
:100F4000010707FA0CFCF2404CEA0202F740C5E93F
:100F5000002700263146BDE8F0872E4628460BE7DD
:100F60000646E9E61846FDE64345E5D2B8EB020E33
:100F700069EB04010138DFE70846D2E760468DE7F8
:100F80008146B9E7664675E730464AE7ACF1020CA0
:100F9000394413E702383C4424E700BF704700BFE0
:100FA00080B582B000AF00237B601B4B1B6B1A4ADD
:100FB00043F400131363184B1B6B03F400137B60A3
:100FC0007B6800233B60144B1B6B134A43F4800384
:100FD0001363114B1B6B03F480033B603B680022DF
:100FE00006210E2005F04CFD0E2005F065FD0022C7
:100FF0000A210F2005F044FD0F2005F05DFD0022C1
:101000000B213B2005F03CFD3B2005F055FD00BFCA
:101010000837BD4680BD00BF0038024080B582B0B1
:1010200000AF78600B467B807B881946786800F0BB
:1010300049F8034607EE903AF8EE677AB0EE670A91
:101040000837BD4680BD000080B582B000AF786033
:101050000B467B807B881946786800F07EF8034653
:1010600007EE903AF8EEE77A9FED057AC7EE876AC9
:10107000F0EE667AB0EE670A0837BD4680BD00BF65
:10108000CDCC4C3D80B586B002AF78600B467B80FE
:1010900013463B8000233B733B881B0A9BB2DBB2A9
:1010A0007B733B88DBB2BB7307F10C0279880A23A0
:1010B00000930323786807F04FFD03461846103766
:1010C000BD4680BD80B586B002AF78600B467B80A0
:1010D00002233B7307F10C0279880A230093012352
:1010E000786807F039FD07F1080279880A23009330
:1010F0000223786807F02EFE0346002B01D0FF2361
:1011000007E03B7A1B021AB27B7A1BB213431BB275
:101110009BB218461037BD4680BD80B586B002AF81
:1011200078600B467B8013463B8005233B733B88EE
:101130001B0A9BB2DBB27B733B88DBB2BB7307F14C
:101140000C0279880A2300930323786807F004FDD2
:10115000034618461037BD4680BD80B586B002AF45
:1011600078600B467B8004233B7307F10C0279887F
:101170000A2300930123786807F0EEFC07F10802C8
:1011800079880A2300930223786807F0E3FD034679
:10119000002B01D0FF2307E03B7A1B021AB27B7AB7
:1011A0001BB213431BB29BB218461037BD4680BD1D
:1011B00080B58EB000AF07F11C0300221A605A60A0
:1011C0009A60DA601A615A619A613B4600221A609D
:1011D0005A609A60DA601A615A619A61304B4FF036
:1011E00020421A602E4B2F4A5A602D4B00229A60E3
:1011F0002B4B0022DA602A4B00221A61284B102266
:101200005A61274B00229A61254B0022DA61244B58
:1012100000221A62224B00225A62214B4FF4805264
:101220009A621F4B0022DA621D4B4FF480421A6310
:101230001B4B00225A631A4B00229A63184B002260
:10124000DA63174B00225A640323FB610F233B62CE
:1012500005237B620F23BB621023FB6211233B63D8
:1012600000237B6300233B600F237B600423BB6070
:101270000F23FB6010233B6111237B610023BB61C3
:101280003A4607F11C031946054809F051FD03468B
:10129000002B01D004F08EF900BF3837BD4680BD69
:1012A000BC2A0220040100A080B586B000AF3B1D1F
:1012B00000221A605A609A60DA601A611C4B1B683F
:1012C000002B31D11A4B01221A6000233B60194BCD
:1012D0009B6B184A43F001039363164B9B6B03F01F
:1012E00001033B603B684FF680737B600223BB6069
:1012F0000023FB6003233B610C237B613B1D1946EC
:101300000D4807F01FF94EF2B3737B600223BB60F8
:101310000023FB6003233B610C237B613B1D1946CB
:10132000064807F00FF900E000BF1837BD4680BD42
:10133000100200200038024000100240000C024061
:1013400080B582B000AF7860FFF7AEFF00BF08370E
:10135000BD4680BD80B584B000AF01F02DFA0020FD
:1013600001F05AF905F000F90023BB800023BB60AF
:101370000023FB812FE0FB891946002000F0B4FD1B
:1013800000F0A2FD0023BB811EE03B1DB96818469A
:1013900005F010FABB685A1C3B1D01331146184674
:1013A00005F008FA7B79FB80FB881B029AB23B7937
:1013B0009BB21344FB80204AFB885380BB680233F6
:1013C000BB60BB890133BB81BB89B3F5F07FDCD344
:1013D000FB890133FB81FB8940F21E329342CAD95B
:1013E000164A002116480CF086FA0346154A136087
:1013F000154A002115480CF07EFA0346144A136082
:10140000144A002114480CF076FA0346134A13607C
:10141000134A002113480CF06EFA0346124A136077
:10142000124A002112480CF066FA0346114A136072
:1014300000BF1037BD4680BDFEFF07606C6D02081F
:10144000791400080C2B0220906D0208D9150008B1
:10145000102B0220B46D020801170008282B02206F
:10146000D86D02081D170008242B0220FC6D02080D
:1014700049170008202B022090B593B002AF786086
:101480000BF010FC4FF0FF33FB634FF480700FF054
:10149000BBFEB863BB6B002B03D149481FF0F4FCC3
:1014A00079E000220121022013F0EAFAF863FB6BD5
:1014B000002B02DA43481FF0E7FC022387F82130B3
:1014C00000237B6241F2893014F05CF803467B8490
:1014D00007F1200308330822002118461EF032FFCE
:1014E00007F1200310221946F86B12F075FD034630
:1014F000B3F1FF3F03D134481FF0C6FC4BE0052198
:10150000F86B12F02DFE1023FB6007F10C0207F1BF
:1015100010031946F86B12F041FC786307F11003D1
:10152000043318461DF04AFD04467B8A184614F021
:1015300029F803461A46214624481FF01FFC0123C0
:10154000BB6007F108030422009201220621786B98
:1015500013F0B4FC00234FF48072B96B786B13F076
:1015600069F938633B6B002B0ADD396B18481FF0B3
:1015700005FC3B6B1A46B96B786B13F0DFFAE9E7B1
:1015800000BF7B6B002B02DB786B12F093FD4FF0FA
:10159000FF337B63B7E7BB6B002B02D0B86B1EF049
:1015A00093FEFB6B002B02DBF86B12F083FD094B03
:1015B0001B6818460EF09EF900BF4437BD4690BD2B
:1015C00038330208443302085433020864330208F3
:1015D000883302080C2B022080B582B000AF7860FF
:1015E00040F6076284213C48FFF74CFD4FF48062CF
:1015F00084213948FFF791FD00224FF4806137487C
:1016000007F04CF901221021354807F047F98421F1
:101610003148FFF703FDF0EE407A324BC3ED007A1C
:10162000304B1B681846FEF79FFF4FF000022E4B11
:10163000FEF7F2FF02460B46104619464FF0000235
:101640002A4BFFF713F902460B4610461946FFF7DF
:10165000DBFA0346234A1360224B1B681846FEF749
:1016600083FF02460B46224922481FF065FC2148B1
:101670001FF084FB84211848FFF7E6FCF0EE407A67
:101680001D4BC3ED007A1C4B1B681846FEF76CFF20
:101690000FA3D3E90023FEF7BFFF02460B46104617
:1016A0001946FFF7B1FA0346134A1360124B1B6841
:1016B0001846FEF759FF02460B460D490F481FF02A
:1016C0003BFC0E481FF05AFB64200CF0A6F99EE785
:1016D0007B14AE47E17A943F2C2B0220000002409D
:1016E00000200240142B02200000F43F00408F40F5
:1016F0009C33020814020020182B0220180200203C
:1017000080B582B000AF786003481FF0BDFB642055
:101710000CF083F9F8E700BFA033020880B582B06F
:1017200000AF786006481FF0AFFB06481FF0ACFB27
:1017300004481FF0A9FB4FF47A700CF06EF9F7E73C
:10174000B0330208DC33020880B588B004AF78609B
:10175000782003F091FF04F02BF89B4B1B7803F0EB
:101760000303DBB2012B0CD101230293974B0193AE
:10177000102300931023C8225721AA2003F017FE3C
:101780000BE001230293924B01931023009310234B
:1017900096225721AA2003F00AFE8B4B1B7803F0F8
:1017A0000C03DBB2042B0CD101230293894B019370
:1017B000102300931023C8227E21AA2003F0F7FDF6
:1017C0000BE001230293844B019310230093102319
:1017D00096227E21AA2003F0EAFD7B4B1B7803F0C2
:1017E0003003DBB2102B0CD1012302937B4B01930E
:1017F000102300931023C822A721AA2003F0D7FDAD
:101800000BE001230293764B0193102300931023E6
:101810009622A721AA2003F0CAFD01230293714B4F
:1018200001931823009318233C2240F21F11B42087
:1018300003F0BDFD012302936B4B0193182300932A
:1018400018233C2240F24911B42003F0B0FD674B4D
:10185000D3ED007AFCEEE77AC7ED007A3B68DBB2A5
:10186000032B19D9614BD3ED007AFCEEE77AC7ED73
:10187000007A3B68DBB2052B0ED8012302935C4B48
:1018800001931823009318233C2240F21F1140F2C9
:10189000751003F08CFD0DE001230293554B01936D
:1018A0001823009318233C2240F21F1140F27510B8
:1018B00003F07DFD504BD3ED007AFCEEE77AC7EDE7
:1018C000007A3B68DBB2962B19D94B4BD3ED007AEB
:1018D000FCEEE77AC7ED007A3B68DBB2D62B0ED878
:1018E00001230293424B01931823009318233C22B7
:1018F0004FF4A47140F2751003F059FD0DE001237F
:1019000002933C4B01931823009318233C224FF47D
:10191000A47140F2751003F04AFD384B1B78013377
:10192000DAB2364B1A70354B1B78012B17D10123D5
:1019300003934FF6FF730293314B0193942300936B
:1019400094234FF4C87240F236219C2003F0DEFC51
:10195000322240F28A214FF4877003F0A5F9274B19
:101960001B78022B40F2C280244B00221A703023D5
:101970003B73244B1B781A4607F10C032249184687
:101980001FF0DAFA0123029307F10C0301932023DD
:101990000093202320224FF4D77140F2011003F06E
:1019A00006FD184B1B78032B30D101230293104BFB
:1019B0000193202300932023642240F2D71140F2A8
:1019C000011003F0F4FC2FE01C2B0220003402086D
:1019D000103402082034020830340208403402086F
:1019E000503402081402002018020020142B022098
:1019F0006034020868340208182B02201D2B0220D4
:101A000070340208FC31002078340208012302936C
:101A1000384B0193202300932023642240F2D711F6
:101A200040F2011003F0C3FC334B1B7803F00103B9
:101A3000DBB2002B3CD0314BD3ED007AFCEEE77AE1
:101A4000C7ED007A3B68DBB2032B31D92B4BD3EDCA
:101A5000007AFCEEE77AC7ED007A3B68DBB2052B33
:101A600026D8274BD3ED007AFCEEE77AC7ED007A53
:101A70003B68DBB2962B1BD9214BD3ED007AFCEEF1
:101A8000E77AC7ED007A3B68DBB2D62B10D801238A
:101A900003934FF4FC6302931A4B01939423009336
:101AA0009423E62240F236219C2003F02FFC0FE025
:101AB000012303934FF478430293134B0193942330
:101AC00000939423E62240F236219C2003F01EFC72
:101AD000094B00221A7000BF094BD3ED007AB2EE19
:101AE000047AF4EEC77AF1EE10FAF5DC02200BF07E
:101AF00094FF30E668340208FC310020142B0220E9
:101B0000182B02207C3402087034020880B58EB095
:101B100000AF07F1240300221A605A609A60DA606D
:101B20001A6100233B62774B1B6B764A43F0040338
:101B30001363744B1B6B03F004033B623B6A00238B
:101B4000FB61704B1B6B6F4A43F0800313636D4B5B
:101B50001B6B03F08003FB61FB690023BB61694BD6
:101B60001B6B684A43F001031363664B1B6B03F066
:101B70000103BB61BB6900237B61624B1B6B614A44
:101B800043F0100313635F4B1B6B03F010037B6187
:101B90007B6900233B615B4B1B6B5A4A43F002039A
:101BA0001363584B1B6B03F002033B613B6900233B
:101BB000FB60544B1B6B534A43F008031363514BB8
:101BC0001B6B03F00803FB60FB680023BB604D4BFD
:101BD0001B6B4C4A43F0400313634A4B1B6B03F0EF
:101BE0004003BB60BB6800237B60464B1B6B454AD0
:101BF00043F480731363434B1B6B03F480737B606C
:101C00007B68002240F201413F4806F047FE012276
:101C10004FF4C0513D4806F041FE00224FF481517F
:101C20003B4806F03BFE002210213A4806F036FE03
:101C300001237B620123BB620023FB6200233B6321
:101C400007F124031946304806F07CFC4FF400638A
:101C50007B620123BB620023FB6200233B6307F12D
:101C600024031946294806F06DFC4FF480537B622B
:101C70000123BB620123FB6202233B6307F12403C0
:101C80001946224806F05EFC4FF481537B62012323
:101C9000BB620023FB6200233B6307F12403194668
:101CA0001B4806F04FFC4FF400737B620023BB62BD
:101CB0000023FB6207F124031946134806F042FC97
:101CC0004FF480637B620123BB620123FB6200232C
:101CD0003B6307F1240319460B4806F033FC10233D
:101CE0007B620123BB620223FB6200233B6307F19B
:101CF00024031946074806F025FC00BF3837BD46C7
:101D000080BD00BF0038024000000240001C0240BD
:101D1000000402400020024080B500AF1B4B1C4A6B
:101D20001A601A4B1B4A5A60184B00229A60174BD4
:101D30000022DA60154B4FF480421A61134B0022E7
:101D40005A61124B00229A61104B0022DA610F4B4C
:101D500000221A620D4806F0BBFD0346002B01D09D
:101D600003F028FC0021094807F047FD0346002B3B
:101D700001D003F01FFC0021044807F07AFD034660
:101D8000002B01D003F016FC00BF80BD2C2B0220DD
:101D900000540040A086010080B58AB000AF786092
:101DA00007F1140300221A605A609A60DA601A611F
:101DB0007B681B68194A93422CD100233B61184B66
:101DC0001B6B174A43F002031363154B1B6B03F0A5
:101DD00002033B613B694FF440737B611223BB619B
:101DE0000023FB6103233B6204237B6207F114039E
:101DF00019460C4806F0A6FB0023FB60084B1B6C41
:101E0000074A43F400131364054B1B6C03F40013DF
:101E1000FB60FB6800BF2837BD4680BD0054004012
:101E2000003802400004024080B483B000AF034693
:101E3000FB80FB889BB2FB80044BFA8892B21A802D
:101E400000BF0C37BD465DF8047B7047FEFF07609E
:101E500080B483B000AF0346FB80FB889BB2FB805D
:101E6000044BFA8892B25A8000BF0C37BD465DF829
:101E7000047B7047FEFF076080B483B000AF064B61
:101E80005B889BB2FB80FB889BB218460C37BD4633
:101E90005DF8047B704700BFFEFF076080B483B02D
:101EA00000AF03460A46FB801346BB80054AFB8809
:101EB0001380044ABB88538000BF0C37BD465DF8D1
:101EC000047B7047FEFF076080B400AF044B054AF7
:101ED00012891A8000BFBD465DF8047B704700BFC1
:101EE000FEFF0760802B022080B582B000AF034662
:101EF0000A46FB801346BB806B4B9B8849F24132FC
:101F0000934205D0684B9B8845F21032934222D110
:101F1000654B5B891846FFF787FFFB881B0A9BB25E
:101F20001846FFF795FFFB88DBB29BB21846FFF718
:101F30008FFF5D4B9B891846FFF776FFBB881B0A16
:101F40009BB21846FFF784FFBB88DBB29BB21846F2
:101F5000FFF77EFFA3E0544B9B8841F66312934248
:101F600067D1514B9B79002B1ED14F4B1A88FB88B0
:101F7000D31A9BB2013BFB804B4B5B891846FFF7A2
:101F800053FF0020FFF764FF0020FFF761FFFB888D
:101F90001B0A9BB21846FFF75BFFFB88DBB29BB2C4
:101FA0001846FFF755FF21E03F4B5B891846FFF7C6
:101FB0003BFFFB881B0A9BB21846FFF749FFFB88D3
:101FC000DBB29BB21846FFF743FF374B1B88013B40
:101FD0001B129BB21846FFF73BFF334B1B88013B9C
:101FE0009BB2DBB29BB21846FFF732FF2E4B9B89A8
:101FF0001846FFF719FFBB881B0A9BB21846FFF76C
:1020000027FFBB88DBB29BB21846FFF721FF264BA8
:102010005B88013B1B129BB21846FFF719FF224B4E
:102020005B88013B9BB2DBB29BB21846FFF710FF07
:1020300035E01D4B9B8845F2105293422FD11A4B2D
:102040005B891846FFF7F0FEFB881B0A9BB2184617
:10205000FFF7FEFE144B5B8901339BB21846FFF776
:10206000E3FEFB88DBB29BB21846FFF7F1FE0E4B96
:102070009B891846FFF7D8FEBB881B0A9BB21846FF
:10208000FFF7E6FE084B9B8901339BB21846FFF72A
:10209000CBFEBB88DBB29BB21846FFF7D9FE00BF70
:1020A0000837BD4680BD00BF802B022080B584B0BC
:1020B00000AF0346FB710023FB810023BB81A94BCA
:1020C0009B79012B05D1A74B9B8841F66312934264
:1020D00009D1A44B9B79002B34D1A24B9B8841F6AC
:1020E000631293422ED1FB79072B2CD801A252F810
:1020F00023F000BF152100081B2100082121000842
:10210000272100082D21000833210008392100086B
:102110003F2100080623FB7115E00723FB7112E045
:102120000423FB710FE00523FB710CE00123FB711D
:1021300009E00023FB7106E00323FB7103E00223A7
:10214000FB7100E000BF874B9B8849F2413293420C
:1021500012D0844B9B8845F2103293420CD0814BB5
:102160009B8845F21052934206D07E4B9B8841F6E5
:102170006312934240F03081FB79072B35D801A2DE
:1021800052F823F0EB210008A5210008AF21000838
:10219000B9210008C3210008CD210008D72100087B
:1021A000E1210008FB8943F08003FB811DE0FB89EE
:1021B00043F04003FB8118E0FB8943F0C003FB813F
:1021C00013E0FB8943F02003FB810EE0FB8943F021
:1021D0006003FB8109E0FB8943F0A003FB8104E07D
:1021E000FB8943F0E003FB8100BF5E4B9B8845F217
:1021F0001052934203D14FF45853BB8101E0362370
:10220000BB81584B9B8845F2103293420FD0554BFF
:102210009B8845F21052934209D0524B9B8841F65D
:102220006312934203D0FB8943F00803FB81FA89D0
:10223000BB8911461846FFF731FE4A4B9B8841F691
:102240006312934225D0FB8903F02003002B10D0AA
:10225000444B1A88434B5B889A421AD2414B1B88E5
:102260007B81404B5A883F4B1A803E4A7B89538082
:102270000FE03C4B1A883B4B5B889A4209D9394B9B
:102280001B887B81374B5A88364B1A80354A7B89AD
:102290005380344B9B8845F21052934264D1314BAA
:1022A0005B891846FFF7C0FD0020FFF7D1FD2D4BDD
:1022B0005B8901339BB21846FFF7B6FD0020FFF79C
:1022C000C7FD284B5B8902339BB21846FFF7ACFD74
:1022D000244B1B88013B1B129BB21846FFF7B8FD2D
:1022E000204B5B8903339BB21846FFF79DFD1D4BC6
:1022F0001B88013B9BB2DBB29BB21846FFF7A8FDDF
:10230000184B9B891846FFF78FFD0020FFF7A0FDB3
:10231000144B9B8901339BB21846FFF785FD0020C3
:10232000FFF796FD0F4B9B8902339BB21846FFF7D0
:102330007BFD0C4B5B88013B1B129BB21846FFF7E1
:1023400087FD084B9B8903339BB21846FFF76CFD52
:10235000044B5B88013B9BB2DBB29BB21846FFF794
:1023600077FD39E0802B02201D4B5B891846FFF773
:102370005BFD0020FFF76CFD0020FFF769FD184BA7
:102380001B88013B1B129BB21846FFF761FD144BE3
:102390001B88013B9BB2DBB29BB21846FFF758FD8E
:1023A0000F4B9B891846FFF73FFD0020FFF750FDBC
:1023B0000020FFF74DFD0A4B5B88013B1B129BB2CF
:1023C0001846FFF745FD064B5B88013B9BB2DBB22D
:1023D0009BB21846FFF73CFD00BF1037BD4680BDDD
:1023E000802B022080B582B000AF0346FB800B46F5
:1023F000BB8013467B80BA88FB8811461846FFF7DE
:1024000073FDFFF761FD034A7B88538000BF0837E7
:10241000BD4680BDFEFF076080B582B000AF0346B9
:102420003A60FB800B46BB805E4B9B8849F2413291
:10243000934205D05B4B9B8845F21032934222D1E8
:10244000584B5B891846FFF7EFFCFB881B0A9BB2D1
:102450001846FFF7FDFCFB88DBB29BB21846FFF77E
:10246000F7FC504B9B891846FFF7DEFCBB881B0A24
:102470009BB21846FFF7ECFCBB88DBB29BB2184658
:10248000FFF7E6FC81E0474B9B8845F210529342F0
:1024900030D1444B5B891846FFF7C6FCFB881B0A0A
:1024A0009BB21846FFF7D4FC3E4B5B8901339BB2CD
:1024B0001846FFF7B9FCFB88DBB29BB21846FFF762
:1024C000C7FC384B9B891846FFF7AEFCBB881B0A3C
:1024D0009BB21846FFF7BCFC324B9B8901339BB281
:1024E0001846FFF7A1FCBB88DBB29BB21846FFF78A
:1024F000AFFC4AE02B4B9B8841F66312934244D1D8
:10250000284B9B79002B06D1264B1A88FB88D31ABF
:102510009BB2013BFB80234B5B891846FFF784FC91
:10252000FB881B0A9BB21846FFF792FCFB88DBB2C4
:102530009BB21846FFF78CFCFB881B0A9BB218461F
:10254000FFF786FCFB88DBB29BB21846FFF780FCE6
:10255000144B9B891846FFF767FCBB881B0A9BB28C
:102560001846FFF775FCBB88DBB29BB21846FFF735
:102570006FFCBB881B0A9BB21846FFF769FCBB883F
:10258000DBB29BB21846FFF763FC074B054A128982
:102590001A80054B3A6892B25A8000BF0837BD4690
:1025A00080BD00BF802B0220FEFF076000000000FE
:1025B00080B582B000AF0346FB71BE20FFF734FC4C
:1025C0000520FFF745FCFB791846FDF7BBFF10A37C
:1025D000D3E90023FEF720F802460B4610461946C1
:1025E000FEF7F2FA03469BB21846FFF731FC0120D2
:1025F000FFF72EFCFF20FFF72BFC0020FFF728FC45
:102600000020FFF725FC00BF0837BD4680BD00BF96
:10261000666666666666044080B582B000AF0346B3
:10262000FB71644AFB799371FB79002B5ED1614B9E
:10263000F0221A805F4B4FF4A0725A805D4B9B884A
:1026400049F24132934205D05A4B9B8845F21032F1
:10265000934218D1574B2C221A81564B2A225A8169
:10266000544B2B229A81534B9B8845F21032934254
:1026700040F099804F4B4FF4A0721A804D4B4FF4AD
:10268000F0725A808FE04B4B9B8845F21052934278
:1026900014D1484B4FF430521A81464B4FF4285214
:1026A0005A81444B4FF42C529A81424B4FF4F072B2
:1026B0001A80404B4FF448725A8074E03D4B9B881F
:1026C00041F6631293426ED13A4B2C221A81394B58
:1026D0002B225A81374B2A229A81364B4FF4F072C3
:1026E0001A80344B4FF448725A805CE0314B4FF4FF
:1026F000A0721A802F4BF0225A802E4B9B8849F2F1
:102700004132934205D02B4B9B8845F210329342C5
:1027100009D1284B2C221A81264B2A225A81254B7B
:102720002B229A8131E0234B9B8845F21052934231
:1027300014D1204B4FF430521A811E4B4FF42852C3
:102740005A811C4B4FF42C529A811A4B4FF4487209
:102750001A80184B4FF4F0725A8016E0154B9B8884
:1027600041F66312934210D1124B2C221A81114B65
:102770002A225A810F4B2B229A810E4B4FF448721A
:102780001A800C4B4FF4F0725A800A4B9B8845F22A
:102790001032934207D1074B4FF4F0721A80054B69
:1027A0004FF4A0725A800320FFF780FC00BF083767
:1027B000BD4680BD802B022080B500AF4FF0204386
:1027C00000221A604FF0204300225A60894B0022F9
:1027D0001A604FF020431B684FF0204243F48053AF
:1027E00013604FF020431B684FF0204243F48043B6
:1027F00013604FF020431B684FF0204243F010035A
:1028000013604FF020434FF020425B6853604FF05D
:1028100020435B684FF0204243F00F0353604FF0BA
:1028200020435B684FF0204243F48C435360714B6C
:10283000704A1B6813606F4B1B686E4A43F00F03AE
:1028400013606C4B1B686B4A43F4706313604FF06A
:1028500020431B684FF0204243F0010313606420C3
:102860000BF0DBF864481EF00FFBD320FFF7DCFA17
:10287000FFF702FB03461A46604B9A80FFF7FCFA0B
:1028800003461A465D4B9A80FFF7F6FA03461A464E
:102890005A4B9A80594B9B881B029AB2574B9A808D
:1028A000FFF7EAFA03461A46544B9B8813439AB241
:1028B000524B9A80514B9B8849F24132934200F02F
:1028C0008B80D420FFF7B0FAFFF7D6FA03461A46FA
:1028D0004A4B9A80FFF7D0FA03461A46474B9A8034
:1028E000FFF7CAFA03461A46444B9A80434B9B882B
:1028F0001B029AB2414B9A80FFF7BEFA03461A4672
:102900003E4B9B8813439AB23C4B9A803B4B9B882F
:1029100045F2103293425FD04FF45A40FFF784FAE9
:10292000FFF7AAFA03461A46344B9A804FF45B40ED
:10293000FFF77AFAFFF7A0FA03461A462F4B9A8060
:102940002E4B9B881B029AB22C4B9A804FF45C4012
:10295000FFF76AFAFFF790FA03461A46274B9B885F
:1029600013439AB2254B9A80244B9B88B3F5004FB2
:1029700003D1224B45F210529A80204B9B8845F29E
:102980001052934228D0A120FFF74EFAFFF774FAB5
:1029900003461A46194B9A80FFF76EFA03461A4609
:1029A000164B9A80154B9B881B029AB2134B9A8048
:1029B000FFF762FA03461A46104B9B8813439AB2FC
:1029C0000E4B9A800D4B9B8845F26172934203D166
:1029D0000A4B41F663129A80084B9B8819460848B7
:1029E0001EF0CCF9054B9B8849F24132934240F0EE
:1029F0001F8107E0040100A0EC340208802B0220B4
:102A000000350208CF20FFF70FFA0020FFF720FA69
:102A1000C120FFF71DFA3020FFF71AFAED20FFF76B
:102A200003FA6420FFF714FA0320FFF711FA1220CB
:102A3000FFF70EFA8120FFF70BFAE820FFF7F4F911
:102A40008520FFF705FA1020FFF702FA7A20FFF73A
:102A5000FFF9CB20FFF7E8F93920FFF7F9F92C202F
:102A6000FFF7F6F90020FFF7F3F93420FFF7F0F94C
:102A70000220FFF7EDF9F720FFF7D6F92020FFF746
:102A8000E7F9EA20FFF7D0F90020FFF7E1F900208D
:102A9000FFF7DEF9C020FFF7C7F91B20FFF7D8F9D1
:102AA000C120FFF7C1F90120FFF7D2F9C520FFF7D8
:102AB000BBF93020FFF7CCF93020FFF7C9F9C72068
:102AC000FFF7B2F9B720FFF7C3F93620FFF7ACF9EB
:102AD0004820FFF7BDF93A20FFF7A6F95520FFF788
:102AE000B7F9B120FFF7A0F90020FFF7B1F91A20DC
:102AF000FFF7AEF9B620FFF797F90A20FFF7A8F91C
:102B0000A220FFF7A5F9F220FFF78EF90020FFF7CA
:102B10009FF92620FFF788F90120FFF799F9E020B7
:102B2000FFF782F90F20FFF793F92A20FFF790F9BA
:102B30002820FFF78DF90820FFF78AF90E20FFF70C
:102B400087F90820FFF784F95420FFF781F9A920BD
:102B5000FFF77EF94320FFF77BF90A20FFF778F9AA
:102B60000F20FFF775F90020FFF772F90020FFF73B
:102B70006FF90020FFF76CF90020FFF769F9E120F9
:102B8000FFF752F90020FFF763F91520FFF760F90E
:102B90001720FFF75DF90720FFF75AF91120FFF71B
:102BA00057F90620FFF754F92B20FFF751F956206B
:102BB000FFF74EF93C20FFF74BF90520FFF748F9E6
:102BC0001020FFF745F90F20FFF742F93F20FFF7EC
:102BD0003FF93F20FFF73CF90F20FFF739F92B2091
:102BE000FFF722F90020FFF733F90020FFF730F953
:102BF0000120FFF72DF93F20FFF72AF92A20FFF7E0
:102C000013F90020FFF724F90020FFF721F9002035
:102C1000FFF71EF9EF20FFF71BF91120FFF704F96A
:102C2000782003F051FE2920FFF7FEF801F0CABF1B
:102C3000034B9B8845F21032934240F07C8701E0C1
:102C4000802B0220ED20FFF7EFF80120FFF700F9BD
:102C5000FE20FFF7FDF8EE20FFF7E6F8DE20FFF795
:102C6000F7F82120FFF7F4F8F120FFF7DDF8012055
:102C7000FFF7EEF8DF20FFF7D7F81020FFF7E8F8AE
:102C8000C420FFF7D1F88F20FFF7E2F8C620FFF746
:102C9000CBF80020FFF7DCF8E220FFF7D9F8E220BC
:102CA000FFF7D6F8E220FFF7D3F8BF20FFF7BCF814
:102CB000AA20FFF7CDF8B020FFF7B6F80D20FFF7F8
:102CC000C7F80020FFF7C4F80D20FFF7C1F8002077
:102CD000FFF7BEF81120FFF7BBF80020FFF7B8F8A8
:102CE0001920FFF7B5F80020FFF7B2F82120FFF711
:102CF000AFF80020FFF7ACF82D20FFF7A9F800206F
:102D0000FFF7A6F83D20FFF7A3F80020FFF7A0F893
:102D10005D20FFF79DF80020FFF79AF85D20FFF790
:102D200097F80020FFF794F8B120FFF77DF8802096
:102D3000FFF78EF80020FFF78BF88B20FFF788F85D
:102D40000020FFF785F89620FFF782F80020FFF7B4
:102D50007FF8B220FFF768F80020FFF779F800202D
:102D6000FFF776F80220FFF773F80020FFF770F8FE
:102D70000320FFF76DF80020FFF76AF8B320FFF794
:102D800053F80020FFF764F80020FFF761F80020F7
:102D9000FFF75EF80020FFF75BF80020FFF758F818
:102DA0000020FFF755F80020FFF752F80020FFF74A
:102DB0004FF80020FFF74CF80020FFF749F80020FB
:102DC000FFF746F80020FFF743F80020FFF740F830
:102DD0000020FFF73DF80020FFF73AF80020FFF74A
:102DE00037F80020FFF734F80020FFF731F8002013
:102DF000FFF72EF80020FFF72BF80020FFF728F848
:102E00000020FFF725F80020FFF722F80020FFF749
:102E10001FF8B420FFF708F88B20FFF719F80020FF
:102E2000FFF716F89620FFF713F80020FFF710F8C9
:102E3000A120FFF70DF80020FFF70AF8B520FEF7F4
:102E4000F3FF0220FFF704F80020FFF701F803204A
:102E5000FEF7FEFF0020FEF7FBFF0420FEF7F8FF61
:102E60000020FEF7F5FFB620FEF7DEFF0020FEF79C
:102E7000EFFF0020FEF7ECFFB720FEF7D5FF0020A4
:102E8000FEF7E6FF0020FEF7E3FF3F20FEF7E0FF3E
:102E90000020FEF7DDFF5E20FEF7DAFF0020FEF7E0
:102EA000D7FF6420FEF7D4FF0020FEF7D1FF8C206F
:102EB000FEF7CEFF0020FEF7CBFFAC20FEF7C8FFE9
:102EC0000020FEF7C5FFDC20FEF7C2FF0020FEF762
:102ED000BFFF7020FEF7BCFF0020FEF7B9FF902077
:102EE000FEF7B6FF0020FEF7B3FFEB20FEF7B0FFC2
:102EF0000020FEF7ADFFDC20FEF7AAFF0020FEF762
:102F0000A7FFB820FEF790FF0020FEF7A1FF0020EA
:102F1000FEF79EFF0020FEF79BFF0020FEF798FFC4
:102F20000020FEF795FF0020FEF792FF0020FEF73D
:102F30008FFF0020FEF78CFFBA20FEF775FF2420DC
:102F4000FEF786FF0020FEF783FF0020FEF780FFDC
:102F50000020FEF77DFFC120FEF766FF2020FEF770
:102F600077FF0020FEF774FF5420FEF771FF00206A
:102F7000FEF76EFFFF20FEF76BFF0020FEF768FFF5
:102F8000C220FEF751FF0A20FEF762FF0020FEF785
:102F90005FFF0420FEF75CFF0020FEF759FFC3200F
:102FA000FEF742FF3C20FEF753FF0020FEF750FFE4
:102FB0003A20FEF74DFF0020FEF74AFF3920FEF7CA
:102FC00047FF0020FEF744FF3720FEF741FF0020B7
:102FD000FEF73EFF3C20FEF73BFF0020FEF738FFE8
:102FE0003620FEF735FF0020FEF732FF3220FEF7D5
:102FF0002FFF0020FEF72CFF2F20FEF729FF0020D7
:10300000FEF726FF2C20FEF723FF0020FEF720FF0F
:103010002920FEF71DFF0020FEF71AFF2620FEF7ED
:1030200017FF0020FEF714FF2420FEF711FF0020F9
:10303000FEF70EFF2420FEF70BFF0020FEF708FF2F
:103040002320FEF705FF0020FEF702FF3C20FEF7DD
:10305000FFFE0020FEF7FCFE3620FEF7F9FE002002
:10306000FEF7F6FE3220FEF7F3FE0020FEF7F0FE3C
:103070002F20FEF7EDFE0020FEF7EAFE2C20FEF7E3
:10308000E7FE0020FEF7E4FE2920FEF7E1FE002027
:10309000FEF7DEFE2620FEF7DBFE0020FEF7D8FE60
:1030A0002420FEF7D5FE0020FEF7D2FE2420FEF7F6
:1030B000CFFE0020FEF7CCFE2320FEF7C9FE002045
:1030C000FEF7C6FEC420FEF7AFFE6220FEF7C0FE8C
:1030D0000020FEF7BDFE0520FEF7BAFE0020FEF739
:1030E000B7FE8420FEF7B4FE0020FEF7B1FEF0200C
:1030F000FEF7AEFE0020FEF7ABFE1820FEF7A8FE9E
:103100000020FEF7A5FEA420FEF7A2FE0020FEF799
:103110009FFE1820FEF79CFE0020FEF799FE50202F
:10312000FEF796FE0020FEF793FE0C20FEF790FEC1
:103130000020FEF78DFE1720FEF78AFE0020FEF726
:1031400087FE9520FEF784FE0020FEF781FEF32027
:10315000FEF77EFE0020FEF77BFEE620FEF778FEFF
:103160000020FEF775FEC520FEF75EFE3220FEF75A
:103170006FFE0020FEF76CFE4420FEF769FE002083
:10318000FEF766FE6520FEF763FE0020FEF760FE98
:103190007620FEF75DFE0020FEF75AFE8820FEF73F
:1031A00057FE0020FEF754FEC620FEF73DFE20200D
:1031B000FEF74EFE0020FEF74BFE1720FEF748FEFE
:1031C0000020FEF745FE0120FEF742FE0020FEF73C
:1031D0003FFEC720FEF728FE0020FEF739FE002044
:1031E000FEF736FE0020FEF733FE0020FEF730FE2D
:1031F000C820FEF719FE0020FEF72AFE0020FEF789
:1032000027FE0020FEF724FE0020FEF721FEC92045
:10321000FEF70AFE0020FEF71BFE0020FEF718FE58
:103220000020FEF715FE0020FEF712FE0020FEF73C
:103230000FFE0020FEF70CFE0020FEF709FE002026
:10324000FEF706FE0020FEF703FE0020FEF700FE5C
:103250000020FEF7FDFD0020FEF7FAFD0020FEF73E
:10326000F7FD0020FEF7F4FD0020FEF7F1FD002041
:10327000FEF7EEFDE020FEF7D7FD1620FEF7E8FD95
:103280000020FEF7E5FD1C20FEF7E2FD0020FEF722
:10329000DFFD2120FEF7DCFD0020FEF7D9FD362002
:1032A000FEF7D6FD0020FEF7D3FD4620FEF7D0FD49
:1032B0000020FEF7CDFD5220FEF7CAFD0020FEF7EC
:1032C000C7FD6420FEF7C4FD0020FEF7C1FD7A2093
:1032D000FEF7BEFD0020FEF7BBFD8B20FEF7B8FD1C
:1032E0000020FEF7B5FD9920FEF7B2FD0020FEF7A5
:1032F000AFFDA820FEF7ACFD0020FEF7A9FDB92028
:10330000FEF7A6FD0020FEF7A3FDC420FEF7A0FDFA
:103310000020FEF79DFDCA20FEF79AFD0020FEF773
:1033200097FDD220FEF794FD0020FEF791FDD920F5
:10333000FEF78EFD0020FEF78BFDE020FEF788FDF6
:103340000020FEF785FDF320FEF782FD0020FEF74A
:103350007FFDE120FEF768FD1620FEF779FD0020D5
:10336000FEF776FD1C20FEF773FD0020FEF770FDD2
:103370002220FEF76DFD0020FEF76AFD3620FEF7E5
:1033800067FD0020FEF764FD4520FEF761FD00208B
:10339000FEF75EFD5220FEF75BFD0020FEF758FDB4
:1033A0006420FEF755FD0020FEF752FD7A20FEF75F
:1033B0004FFD0020FEF74CFD8B20FEF749FD00205D
:1033C000FEF746FD9920FEF743FD0020FEF740FD85
:1033D000A820FEF73DFD0020FEF73AFDB920FEF7DC
:1033E00037FD0020FEF734FDC420FEF731FD00203C
:1033F000FEF72EFDCA20FEF72BFD0020FEF728FD6C
:10340000D220FEF725FD0020FEF722FDD820FEF792
:103410001FFD0020FEF71CFDE020FEF719FD002037
:10342000FEF716FDF320FEF713FD0020FEF710FD5A
:10343000E220FEF7F9FC0520FEF70AFD0020FEF76A
:1034400007FD0B20FEF704FD0020FEF701FD1B2009
:10345000FEF7FEFC0020FEF7FBFC3420FEF7F8FC34
:103460000020FEF7F5FC4420FEF7F2FC0020FEF7FA
:10347000EFFC4F20FEF7ECFC0020FEF7E9FC61209A
:10348000FEF7E6FC0020FEF7E3FC7920FEF7E0FC07
:103490000020FEF7DDFC8820FEF7DAFC0020FEF7B6
:1034A000D7FC9720FEF7D4FC0020FEF7D1FCA62025
:1034B000FEF7CEFC0020FEF7CBFCB720FEF7C8FCE1
:1034C0000020FEF7C5FCC220FEF7C2FC0020FEF77C
:1034D000BFFCC720FEF7BCFC0020FEF7B9FCD120E2
:1034E000FEF7B6FC0020FEF7B3FCD620FEF7B0FCDA
:1034F0000020FEF7ADFCDD20FEF7AAFC0020FEF761
:10350000A7FCF320FEF7A4FC0020FEF7A1FCE320BB
:10351000FEF78AFC0520FEF79BFC0020FEF798FCD6
:103520000A20FEF795FC0020FEF792FC1C20FEF717
:103530008FFC0020FEF78CFC3320FEF789FC002076
:10354000FEF786FC4420FEF783FC0020FEF780FC9B
:103550005020FEF77DFC0020FEF77AFC6220FEF78B
:1035600077FC0020FEF774FC7820FEF771FC002049
:10357000FEF76EFC8820FEF76BFC0020FEF768FC6F
:103580009720FEF765FC0020FEF762FCA620FEF700
:103590005FFC0020FEF75CFCB720FEF759FC002022
:1035A000FEF756FCC220FEF753FC0020FEF750FC4D
:1035B000C720FEF74DFC0020FEF74AFCD120FEF7A5
:1035C00047FC0020FEF744FCD520FEF741FC00201C
:1035D000FEF73EFCDD20FEF73BFC0020FEF738FC4A
:1035E000F320FEF735FC0020FEF732FCE420FEF766
:1035F0001BFC0120FEF72CFC0020FEF729FC01201B
:10360000FEF726FC0020FEF723FC0220FEF720FC3C
:103610000020FEF71DFC2A20FEF71AFC0020FEF712
:1036200017FC3C20FEF714FC0020FEF711FC4B2099
:10363000FEF70EFC0020FEF70BFC5D20FEF708FCF9
:103640000020FEF705FC7420FEF702FC0020FEF7C8
:10365000FFFB8420FEF7FCFB0020FEF7F9FB932024
:10366000FEF7F6FB0020FEF7F3FBA220FEF7F0FBCF
:103670000020FEF7EDFBB320FEF7EAFB0020FEF78B
:10368000E7FBBE20FEF7E4FB0020FEF7E1FBC420D1
:10369000FEF7DEFB0020FEF7DBFBCD20FEF7D8FBBC
:1036A0000020FEF7D5FBD320FEF7D2FB0020FEF76B
:1036B000CFFBDD20FEF7CCFB0020FEF7C9FBF3209B
:1036C000FEF7C6FB0020FEF7C3FBE520FEF7ACFBD0
:1036D0000020FEF7BDFB0020FEF7BAFB0020FEF73E
:1036E000B7FB0020FEF7B4FB0220FEF7B1FB002081
:1036F000FEF7AEFB2920FEF7ABFB0020FEF7A8FB90
:103700003C20FEF7A5FB0020FEF7A2FB4B20FEF7B6
:103710009FFB0020FEF79CFB5D20FEF799FB00203D
:10372000FEF796FB7420FEF793FB0020FEF790FB5C
:103730008420FEF78DFB0020FEF78AFB9320FEF726
:1037400087FB0020FEF784FBA220FEF781FB002010
:10375000FEF77EFBB320FEF77BFB0020FEF778FB35
:10376000BE20FEF775FB0020FEF772FBC420FEF7BB
:103770006FFB0020FEF76CFBCD20FEF769FB0020FD
:10378000FEF766FBD320FEF763FB0020FEF760FB2D
:10379000DC20FEF75DFB0020FEF75AFBF320FEF76E
:1037A00057FB0020FEF754FBE620FEF73DFB1120FF
:1037B000FEF74EFB0020FEF74BFB3420FEF748FBE4
:1037C0000020FEF745FB5620FEF742FB0020FEF7E7
:1037D0003FFB7620FEF73CFB0020FEF739FB77200D
:1037E000FEF736FB0020FEF733FB6620FEF730FBCA
:1037F0000020FEF72DFB8820FEF72AFB0020FEF7B5
:1038000027FB9920FEF724FB0020FEF721FBBB20BD
:10381000FEF71EFB0020FEF71BFB9920FEF718FBAE
:103820000020FEF715FB6620FEF712FB0020FEF7D6
:103830000FFB5520FEF70CFB0020FEF709FB55207F
:10384000FEF706FB0020FEF703FB4520FEF700FB1A
:103850000020FEF7FDFA4320FEF7FAFA0020FEF7FB
:10386000F7FA4420FEF7F4FA0020FEF7F1FAE72019
:10387000FEF7DAFA3220FEF7EBFA0020FEF7E8FA5C
:103880005520FEF7E5FA0020FEF7E2FA7620FEF773
:10389000DFFA0020FEF7DCFA6620FEF7D9FA0020F6
:1038A000FEF7D6FA6720FEF7D3FA0020FEF7D0FA2B
:1038B0006720FEF7CDFA0020FEF7CAFA8720FEF750
:1038C000C7FA0020FEF7C4FA9920FEF7C1FA0020DB
:1038D000FEF7BEFABB20FEF7BBFA0020FEF7B8FAEF
:1038E0009920FEF7B5FA0020FEF7B2FA7720FEF72E
:1038F000AFFA0020FEF7ACFA4420FEF7A9FA002048
:10390000FEF7A6FA5620FEF7A3FA0020FEF7A0FA6B
:103910002320FEF79DFA0020FEF79AFA3320FEF7E7
:1039200097FA0020FEF794FA4520FEF791FA00205E
:10393000FEF78EFAE820FEF777FA0020FEF788FA05
:103940000020FEF785FA9920FEF782FA0020FEF7A4
:103950007FFA8720FEF77CFA0020FEF779FA8820AC
:10396000FEF776FA0020FEF773FA7720FEF770FA7A
:103970000020FEF76DFA6620FEF76AFA0020FEF7D7
:1039800067FA8820FEF764FA0020FEF761FAAA20A1
:10399000FEF75EFA0020FEF75BFABB20FEF758FA4E
:1039A0000020FEF755FA9920FEF752FA0020FEF7A4
:1039B0004FFA6620FEF74CFA0020FEF749FA552030
:1039C000FEF746FA0020FEF743FA5520FEF740FACC
:1039D0000020FEF73DFA4420FEF73AFA0020FEF7F9
:1039E00037FA4420FEF734FA0020FEF731FA55206A
:1039F000FEF72EFA0020FEF72BFAE920FEF714FA64
:103A0000AA20FEF725FA0020FEF722FA0020FEF792
:103A10001FFA0020FEF71CFA0020FEF705FAAA2084
:103A2000FEF716FACF20FEF7FFF90020FEF710FA96
:103A30000020FEF70DFA0020FEF70AFA0020FEF73C
:103A400007FA0020FEF704FA0020FEF701FA002032
:103A5000FEF7FEF90020FEF7FBF90020FEF7F8F96B
:103A60000020FEF7F5F90020FEF7F2F90020FEF73E
:103A7000EFF90020FEF7ECF90020FEF7E9F900204D
:103A8000FEF7E6F90020FEF7E3F90020FEF7E0F983
:103A9000F020FEF7C9F90020FEF7DAF95020FEF712
:103AA000D7F90020FEF7D4F90020FEF7D1F9002065
:103AB000FEF7CEF9F320FEF7B7F90020FEF7C8F9BC
:103AC000F920FEF7B1F90620FEF7C2F91020FEF743
:103AD000BFF92920FEF7BCF90020FEF7B9F93A201A
:103AE000FEF7A2F95520FEF7B3F91120FEF79CF975
:103AF000642002F0E9FE2920FEF796F93520FEF752
:103B000093F90020FEF7A4F95120FEF78DF9FF206C
:103B1000FEF79EF95320FEF787F92C20FEF798F95F
:103B20005520FEF781F98220FEF792F92C20FEF74E
:103B30007BF901F047B8044B9B8845F21052934241
:103B400040F0818702E000BF802B022055214FF416
:103B50007040FEF7A3F9AA214FF20100FEF79EF98B
:103B600052214FF20200FEF799F908214FF20300AB
:103B7000FEF794F901214FF20400FEF78FF90D21B1
:103B80004FF43040FEF78AF90D214BF20100FEF7A9
:103B900085F90D214BF20200FEF780F934214FF434
:103BA0003640FEF77BF934214BF20160FEF776F9DF
:103BB00034214BF20260FEF771F90D214FF43140D0
:103BC000FEF76CF90D214BF20110FEF767F90D219C
:103BD0004BF20210FEF762F934214FF43740FEF742
:103BE0005DF934214BF20170FEF758F934214BF2A4
:103BF0000270FEF753F900214FF43240FEF74EF900
:103C000000214BF20120FEF749F900214BF202207E
:103C1000FEF744F924214FF43840FEF73FF9242100
:103C20004BF60100FEF73AF924214BF60200FEF7AD
:103C300035F901214FF43F40FEF730F90F214FF4E1
:103C40003340FEF72BF90F214BF20130FEF726F936
:103C50000F214BF20230FEF721F934214FF43940A5
:103C6000FEF71CF934214BF60110FEF717F9342149
:103C70004BF60210FEF712F908214FF43540FEF71B
:103C80000DF908214BF20150FEF708F908214BF21B
:103C90000250FEF703F903214FF44240FEF7FEF80D
:103CA00024214FF43A40FEF7F9F824214BF6012085
:103CB000FEF7F4F824214BF60220FEF7EFF800217E
:103CC0004FF43C40FEF7EAF878214BF60140FEF74E
:103CD000E5F800214BF60240FEF7E0F800214FF432
:103CE0003D40FEF7DBF878214BF60150FEF7D6F8A1
:103CF00000214BF60250FEF7D1F800214FF43E4070
:103D0000FEF7CCF864214BF60160FEF7C7F80021FE
:103D10004FF45140FEF7C2F833214DF20110FEF787
:103D2000BDF800214DF20210FEF7B8F834214DF233
:103D30000310FEF7B3F800214DF20410FEF7AEF8C1
:103D40003A214DF20510FEF7A9F800214DF20610B8
:103D5000FEF7A4F84A214DF20710FEF79FF8002164
:103D60004DF20810FEF79AF85C214DF20910FEF7AB
:103D700095F800214DF20A10FEF790F881214DF2DE
:103D80000B10FEF78BF800214DF20C10FEF786F8B1
:103D9000A6214DF20D10FEF781F800214DF20E1014
:103DA000FEF77CF8E5214DF20F10FEF777F80121C0
:103DB0004DF21010FEF772F813214DF21110FEF7BC
:103DC0006DF801214DF21210FEF768F854214DF202
:103DD0001310FEF763F801214DF21410FEF75EF8A0
:103DE00082214DF21510FEF759F801214DF21610FF
:103DF000FEF754F8CA214DF21710FEF74FF80221D2
:103E00004DF21810FEF74AF800214DF21910FEF796
:103E100045F802214DF21A10FEF740F801214DF24B
:103E20001B10FEF73BF802214DF21C10FEF736F88E
:103E300034214DF21D10FEF731F802214DF21E1013
:103E4000FEF72CF867214DF21F10FEF727F802212C
:103E50004DF22010FEF722F884214DF22110FEF7DA
:103E60001DF802214DF22210FEF718F8A4214DF2A0
:103E70002310FEF713F802214DF22410FEF70EF87E
:103E8000B7214DF22510FEF709F802214DF2261058
:103E9000FEF704F8CF214DF22710FDF7FFFF0221B6
:103EA0004DF22810FDF7FAFFDE214DF22910FDF743
:103EB000F5FF02214DF22A10FDF7F0FFF2214DF23D
:103EC0002B10FDF7EBFF02214DF22C10FDF7E6FF62
:103ED000FE214DF22D10FDF7E1FF03214DF22E10D2
:103EE000FDF7DCFF10214DF22F10FDF7D7FF032166
:103EF0004DF23010FDF7D2FF33214DF23110FDF7B6
:103F0000CDFF03214DF23210FDF7C8FF6D214DF2B8
:103F10003310FDF7C3FF00214FF45240FDF7BEFF01
:103F200033214DF20120FDF7B9FF00214DF20220AF
:103F3000FDF7B4FF34214DF20320FDF7AFFF002160
:103F40004DF20420FDF7AAFF3A214DF20520FDF7BE
:103F5000A5FF00214DF20620FDF7A0FF4A214DF2FA
:103F60000720FDF79BFF00214DF20820FDF796FF8B
:103F70005C214DF20920FDF791FF00214DF20A204E
:103F8000FDF78CFF81214DF20B20FDF787FF00210B
:103F90004DF20C20FDF782FFA6214DF20D20FDF71A
:103FA0007DFF00214DF20E20FDF778FFE5214DF257
:103FB0000F20FDF773FF01214DF21020FDF76EFF7A
:103FC00013214DF21120FDF769FF01214DF212205E
:103FD000FDF764FF54214DF21320FDF75FFF01212F
:103FE0004DF21420FDF75AFF82214DF21520FDF706
:103FF00055FF01214DF21620FDF750FFCA214DF269
:104000001720FDF74BFF02214DF21820FDF746FF68
:1040100000214DF21920FDF741FF02214DF21A2037
:10402000FDF73CFF01214DF21B20FDF737FF022178
:104030004DF21C20FDF732FF34214DF21D20FDF71B
:104040002DFF02214DF21E20FDF728FF67214DF2C2
:104050001F20FDF723FF02214DF22020FDF71EFF58
:1040600084214DF22120FDF719FF02214DF222207B
:10407000FDF714FFA4214DF22320FDF70FFF0221CD
:104080004DF22420FDF70AFFB7214DF22520FDF760
:1040900005FF02214DF22620FDF700FFCF214DF252
:1040A0002720FDF7FBFE02214DF22820FDF7F6FE4A
:1040B000DE214DF22920FDF7F1FE02214DF22A20EA
:1040C000FDF7ECFEF2214DF22B20FDF7E7FE022179
:1040D0004DF22C20FDF7E2FEFE214DF22D20FDF7E2
:1040E000DDFE03214DF22E20FDF7D8FE10214DF20A
:1040F0002F20FDF7D3FE03214DF23020FDF7CEFE39
:1041000033214DF23120FDF7C9FE03214DF232205B
:10411000FDF7C4FE6D214DF23320FDF7BFFE0021F7
:104120004FF45340FDF7BAFE33214DF20130FDF755
:10413000B5FE00214DF20230FDF7B0FE34214DF204
:104140000330FDF7ABFE00214DF20430FDF7A6FE73
:104150003A214DF20530FDF7A1FE00214DF2063067
:10416000FDF79CFE4A214DF20730FDF797FE002136
:104170004DF20830FDF792FE5C214DF20930FDF75B
:104180008DFE00214DF20A30FDF788FE81214DF2AF
:104190000B30FDF783FE00214DF20C30FDF77EFE63
:1041A000A6214DF20D30FDF779FE00214DF20E30C3
:1041B000FDF774FEE5214DF20F30FDF76FFE012192
:1041C0004DF21030FDF76AFE13214DF21130FDF76C
:1041D00065FE01214DF21230FDF760FE54214DF2D3
:1041E0001330FDF75BFE01214DF21430FDF756FE52
:1041F00082214DF21530FDF751FE01214DF21630AE
:10420000FDF74CFECA214DF21730FDF747FE0221A3
:104210004DF21830FDF742FE00214DF21930FDF746
:104220003DFE02214DF21A30FDF738FE01214DF21C
:104230001B30FDF733FE02214DF21C30FDF72EFE40
:1042400034214DF21D30FDF729FE02214DF21E30C2
:10425000FDF724FE67214DF21F30FDF71FFE0221FE
:104260004DF22030FDF71AFE84214DF22130FDF78A
:1042700015FE02214DF22230FDF710FEA4214DF271
:104280002330FDF70BFE02214DF22430FDF706FE30
:10429000B7214DF22530FDF701FE02214DF2263007
:1042A000FDF7FCFDCF214DF22730FDF7F7FD022190
:1042B0004DF22830FDF7F2FDDE214DF22930FDF7F9
:1042C000EDFD02214DF22A30FDF7E8FDF2214DF21D
:1042D0002B30FDF7E3FD02214DF22C30FDF7DEFD22
:1042E000FE214DF22D30FDF7D9FD03214DF22E3088
:1042F000FDF7D4FD10214DF22F30FDF7CFFD032146
:104300004DF23030FDF7CAFD33214DF23130FDF76B
:10431000C5FD03214DF23230FDF7C0FD6D214DF298
:104320003330FDF7BBFD00214FF45440FDF7B6FDDF
:1043300033214DF20140FDF7B1FD00214DF2024065
:10434000FDF7ACFD34214DF20340FDF7A7FD002140
:104350004DF20440FDF7A2FD3A214DF20540FDF774
:104360009DFD00214DF20640FDF798FD4A214DF2DA
:104370000740FDF793FD00214DF20840FDF78EFD4B
:104380005C214DF20940FDF789FD00214DF20A4004
:10439000FDF784FD81214DF20B40FDF77FFD0021EB
:1043A0004DF20C40FDF77AFDA6214DF20D40FDF7D0
:1043B00075FD00214DF20E40FDF770FDE5214DF237
:1043C0000F40FDF76BFD01214DF21040FDF766FD3A
:1043D00013214DF21140FDF761FD01214DF2124014
:1043E000FDF75CFD54214DF21340FDF757FD01210F
:1043F0004DF21440FDF752FD82214DF21540FDF7BC
:104400004DFD01214DF21640FDF748FDCA214DF248
:104410001740FDF743FD02214DF21840FDF73EFD28
:1044200000214DF21940FDF739FD02214DF21A40ED
:10443000FDF734FD01214DF21B40FDF72FFD022158
:104440004DF21C40FDF72AFD34214DF21D40FDF7D1
:1044500025FD02214DF21E40FDF720FD67214DF2A2
:104460001F40FDF71BFD02214DF22040FDF716FD18
:1044700084214DF22140FDF711FD02214DF2224031
:10448000FDF70CFDA4214DF22340FDF707FD0221AD
:104490004DF22440FDF702FDB7214DF22540FDF716
:1044A000FDFC02214DF22640FDF7F8FCCF214DF234
:1044B0002740FDF7F3FC02214DF22840FDF7EEFC0A
:1044C000DE214DF22940FDF7E9FC02214DF22A40A0
:1044D000FDF7E4FCF2214DF22B40FDF7DFFC022159
:1044E0004DF22C40FDF7DAFCFE214DF22D40FDF798
:1044F000D5FC03214DF22E40FDF7D0FC10214DF2EA
:104500002F40FDF7CBFC03214DF23040FDF7C6FCF8
:1045100033214DF23140FDF7C1FC03214DF2324011
:10452000FDF7BCFC6D214DF23340FDF7B7FC0021D7
:104530004FF45540FDF7B2FC33214DF20150FDF729
:10454000ADFC00214DF20250FDF7A8FC34214DF2E4
:104550000350FDF7A3FC00214DF20450FDF79EFC33
:104560003A214DF20550FDF799FC00214DF206501D
:10457000FDF794FC4A214DF20750FDF78FFC002116
:104580004DF20850FDF78AFC5C214DF20950FDF711
:1045900085FC00214DF20A50FDF780FC81214DF28F
:1045A0000B50FDF77BFC00214DF20C50FDF776FC23
:1045B000A6214DF20D50FDF771FC00214DF20E5079
:1045C000FDF76CFCE5214DF20F50FDF767FC012172
:1045D0004DF21050FDF762FC13214DF21150FDF722
:1045E0005DFC01214DF21250FDF758FC54214DF2B3
:1045F0001350FDF753FC01214DF21450FDF74EFC12
:1046000082214DF21550FDF749FC01214DF2165063
:10461000FDF744FCCA214DF21750FDF73FFC022183
:104620004DF21850FDF73AFC00214DF21950FDF7FC
:1046300035FC02214DF21A50FDF730FC01214DF2FC
:104640001B50FDF72BFC02214DF21C50FDF726FC00
:1046500034214DF21D50FDF721FC02214DF21E5078
:10466000FDF71CFC67214DF21F50FDF717FC0221DE
:104670004DF22050FDF712FC84214DF22150FDF740
:104680000DFC02214DF22250FDF708FCA4214DF251
:104690002350FDF703FC02214DF22450FDF7FEFBF1
:1046A000B7214DF22550FDF7F9FB02214DF22650BE
:1046B000FDF7F4FBCF214DF22750FDF7EFFB022170
:1046C0004DF22850FDF7EAFBDE214DF22950FDF7AF
:1046D000E5FB02214DF22A50FDF7E0FBF2214DF2FD
:1046E0002B50FDF7DBFB02214DF22C50FDF7D6FBE2
:1046F000FE214DF22D50FDF7D1FB03214DF22E503E
:10470000FDF7CCFB10214DF22F50FDF7C7FB032125
:104710004DF23050FDF7C2FB33214DF23150FDF721
:10472000BDFB03214DF23250FDF7B8FB6D214DF278
:104730003350FDF7B3FB00214FF45640FDF7AEFBBD
:1047400033214DF20160FDF7A9FB00214DF202601B
:10475000FDF7A4FB34214DF20360FDF79FFB002120
:104760004DF20460FDF79AFB3A214DF20560FDF72A
:1047700095FB00214DF20660FDF790FB4A214DF2BA
:104780000760FDF78BFB00214DF20860FDF786FB0B
:104790005C214DF20960FDF781FB00214DF20A60BA
:1047A000FDF77CFB81214DF20B60FDF777FB0021CB
:1047B0004DF20C60FDF772FBA6214DF20D60FDF786
:1047C0006DFB00214DF20E60FDF768FBE5214DF217
:1047D0000F60FDF763FB01214DF21060FDF75EFBFA
:1047E00013214DF21160FDF759FB01214DF21260CA
:1047F000FDF754FB54214DF21360FDF74FFB0121EF
:104800004DF21460FDF74AFB82214DF21560FDF771
:1048100045FB01214DF21660FDF740FBCA214DF228
:104820001760FDF73BFB02214DF21860FDF736FBE8
:1048300000214DF21960FDF731FB02214DF21A60A3
:10484000FDF72CFB01214DF21B60FDF727FB022138
:104850004DF21C60FDF722FB34214DF21D60FDF787
:104860001DFB02214DF21E60FDF718FB67214DF282
:104870001F60FDF713FB02214DF22060FDF70EFBD8
:1048800084214DF22160FDF709FB02214DF22260E7
:10489000FDF704FBA4214DF22360FDF7FFFA02218E
:1048A0004DF22460FDF7FAFAB7214DF22560FDF7CD
:1048B000F5FA02214DF22660FDF7F0FACF214DF214
:1048C0002760FDF7EBFA02214DF22860FDF7E6FACA
:1048D000DE214DF22960FDF7E1FA02214DF22A6056
:1048E000FDF7DCFAF2214DF22B60FDF7D7FA022139
:1048F0004DF22C60FDF7D2FAFE214DF22D60FDF74E
:10490000CDFA03214DF22E60FDF7C8FA10214DF2C9
:104910002F60FDF7C3FA03214DF23060FDF7BEFAB8
:1049200033214DF23160FDF7B9FA03214DF23260C7
:10493000FDF7B4FA6D214DF23360FDF7AFFA552162
:104940004FF47040FDF7AAFAAA214FF20100FDF7DB
:10495000A5FA52214FF20200FDF7A0FA08214FF20A
:104960000300FDF79BFA00214FF20400FDF796FAD1
:10497000CC214FF43140FDF791FA00214BF20110A8
:10498000FDF78CFA05214FF43640FDF787FA7021C8
:104990004FF43740FDF782FA70214BF20170FDF7BA
:1049A0007DFA01214FF43840FDF778FA03214BF6E8
:1049B0000100FDF773FA03214BF60200FDF76EFAD2
:1049C00003214BF60300FDF769FA02214FF43C4046
:1049D000FDF764FA00214BF60140FDF75FFA002174
:1049E0004BF60240FDF75AFAD0214FF44940FDF74B
:1049F00055FA02214CF60110FDF750FA50214CF601
:104A00000210FDF74BFA50214CF60310FDF746FA61
:104A100050214CF60410FDF741FA00214FF4545098
:104A2000FDF73CFA55214FF46850FDF737FA4FF483
:104A30008850FDF7F9F9012001F046FF4FF42450AA
:104A4000FDF7F2F9BEE07E4B9B8841F6631293427C
:104A500040F0B880E220FDF7E7F91D20FDF7F8F9F6
:104A60000220FDF7F5F90420FDF7F2F9012001F02D
:104A70002BFFE020FDF7D8F90120FDF7E9F90A2026
:104A800001F022FFE020FDF7CFF90320FDF7E0F968
:104A90000C2001F019FF0120FDF7C6F90A2001F0F2
:104AA00013FFE620FDF7C0F92F20FDF7D1F9FF2015
:104AB000FDF7CEF9FF20FDF7CBF9B020FDF7B4F9F3
:104AC0002020FDF7C5F90020FDF7C2F90320FDF70E
:104AD000BFF940F21F30FDF7BBF90120FDF7B8F92F
:104AE00040F2DF10FDF7B4F90020FDF7B1F9B42072
:104AF000FDF79AF90420FDF7ABF940F21F40FDF7EE
:104B0000A7F90020FDF7A4F92E20FDF7A1F9002058
:104B1000FDF79EF90020FDF79BF90020FDF798F9BD
:104B20000020FDF795F9B620FDF77EF90220FDF78C
:104B30008FF94FF40370FDF78BF90020FDF788F92A
:104B40001720FDF785F91520FDF782F90020FDF704
:104B50007FF90020FDF77CF9F020FDF765F90320CF
:104B6000FDF776F92920FDF75FF9D020FDF75CF914
:104B70000020FDF76DF9BE20FDF756F90520FDF781
:104B800067F9FE20FDF764F90120FDF761F90020C7
:104B9000FDF75EF90020FDF75BF90020FDF758F9FD
:104BA000B820FDF741F90320FDF752F90120FDF788
:104BB0004FF9BA20FDF738F90120FDF749F96420D3
:104BC000FDF7F6FC1E4B9B8849F24132934211D00F
:104BD0001B4B9B8845F2103293420BD0184B9B889D
:104BE00045F21052934205D0154B9B8841F6631253
:104BF000934217D1134B1B68124A23F00F03136023
:104C0000104B1B680F4A23F4706313600D4B1B6835
:104C10000C4A43F0040313600A4B1B68094A43F42F
:104C2000806313600020FDF7F7FC01222021064875
:104C300003F034FE4FF6FF7000F008F800BF80BDAF
:104C4000802B0220040100A00004024080B584B043
:104C500000AF78600023FB60114B1B88BB60104BDA
:104C60005B881A46BB6802FB03F3BB60002100208F
:104C7000FDF73AF9FDF728F90023FB6006E0094B40
:104C80007A6892B25A80FB680133FB60FA68BB68AD
:104C90009A42F4D300BF00BF1037BD4680BD00BFAD
:104CA000802B0220FEFF076080B586B000AF034670
:104CB000FB800B46BB801346FB7000237B61FB78B7
:104CC0003B61FB785B00C3F10303FB602FE1002332
:104CD000FB7219E03B699AB2FB8813449AB2FB7AE3
:104CE0009BB2134498B27B699BB2BA88D31A9AB22A
:104CF000FB7A9BB213449BB240F2FF721946FDF758
:104D000071FBFB7A0133FB72FB7A072BE2D903209C
:104D100008F083FE0023FB7219E07B699BB2FA88DE
:104D2000D31A9AB2FB7A9BB2134498B23B699AB2F7
:104D3000BB8813449AB2FB7A9BB213449BB248F2ED
:104D40001F421946FDF74EFBFB7A0133FB72FB7ADB
:104D5000072BE2D9032008F060FE0023FB7219E064
:104D60007B699BB2FA88D31A9AB2FB7A9BB213443E
:104D700098B23B699BB2BA88D31A9AB2FB7A9BB2BB
:104D800013449BB248F21F421946FDF72BFBFB7AF6
:104D90000133FB72FB7A072BE2D9032008F03DFEBA
:104DA0000023FB7219E03B699BB2FA88D31A9AB2CE
:104DB000FB7A9BB2134498B27B699AB2BB881344C6
:104DC0009AB2FB7A9BB213449BB240F2FF7219462F
:104DD000FDF708FBFB7A0133FB72FB7A072BE2D964
:104DE000032008F01AFE0023FB7219E03B699AB217
:104DF000FB8813449AB2FB7A9BB2134498B27B6946
:104E00009AB2BB8813449AB2FB7A9BB213449BB20A
:104E10004FF478421946FDF7E5FAFB7A0133FB724D
:104E2000FB7A072BE2D9032008F0F7FD0023FB7281
:104E300019E07B699AB2FB8813449AB2FB7A9BB261
:104E4000134498B23B699BB2BA88D31A9AB2FB7AE0
:104E50009BB213449BB24FF478421946FDF7C2FA55
:104E6000FB7A0133FB72FB7A072BE2D9032008F0AF
:104E7000D4FD0023FB7219E07B699AB2FB881344CE
:104E80009AB2FB7A9BB2134498B23B699AB2BB8840
:104E900013449AB2FB7A9BB213449BB240F2FF7266
:104EA0001946FDF79FFAFB7A0133FB72FB7A072B59
:104EB000E2D9032008F0B1FD0023FB7219E03B6941
:104EC0009BB2FA88D31A9AB2FB7A9BB2134498B277
:104ED0007B699BB2BA88D31A9AB2FB7A9BB213440D
:104EE0009BB240F2FF721946FDF77CFAFB7A013360
:104EF000FB72FB7A072BE2D9032008F08EFD7B6959
:104F000001337B61FB68002B06DA7B699B0006336B
:104F1000FA681344FB600AE07A693B69D31A9B0084
:104F20000A33FA681344FB603B69013B3B617A69D1
:104F30003B699A427FF7CBAE00BF00BF1837BD4632
:104F400080BD000090B585B000AF0446084611460C
:104F50001A462346FB800346BB800B46FB70134674
:104F6000BB70BB887B81BB78DB08DBB21A46BB78A1
:104F700003F00703DBB2002B14BF01230023DBB2D5
:104F80001344DAB2BB785B08DBB212FB03F37B722B
:104F9000FB78203BFB7000237B73ABE0BB780C2BD2
:104FA0000BD1FA78797B594813465B0013449B0078
:104FB00003440B441B78FB7326E0BB78102B08D10D
:104FC000FA787B7B524912010A4413441B78FB7325
:104FD0001AE0BB78182B0BD1FA78797B4D48134631
:104FE000DB0013449B0003440B441B78FB730BE072
:104FF000BB78202B40F08480FA787B7B4649920175
:105000000A4413441B78FB730023BB736AE097F9CF
:105010000F30002B07DA414B1A68B988FB88184615
:10502000FDF7FAF93FE097F82030002B07D13C4B11
:105030001A68B988FB881846FDF7EEF933E0BA889C
:1050400013461B019B1A5B011A46FB8813445B0045
:105050001A46344B1A60334B1B681946324801F02C
:10506000A9FB304B1B6801331946304801F0A2FB05
:105070002D4B5B789AB22E4B1A802D4B1B881B024E
:105080009AB2294B1B789BB213449AB2284B1A80D0
:10509000FB88013398B2BB8801339BB2244A128843
:1050A0001946FDF7B9F9FB7B5B00FB73BB88013345
:1050B000BB80204B5B88BA889A4223D2BA887B890E
:1050C000D21ABB789A420AD17B89BB80FB88013314
:1050D000FB80184B1B88FA889A4207D313E0BB7BEE
:1050E0000133BB73BB7B072B91D900E000BF7B7BF7
:1050F00001337B737A7B7B7A9A42FFF44FAF02E0F5
:1051000000BF00E000BF1437BD4690BD206E02080E
:105110009472020884780208E085020800000020EA
:10512000040000201C020020200200202102002098
:1051300022020020802B022090B587B000AF0446E9
:10514000084611461A462346FB800346BB800B46A1
:10515000FB701346BB70BB883B82BB78DB08DBB2BD
:105160001A46BB7803F00703DBB2002B14BF012300
:105170000023DBB213449AB2BB785B08DBB29BB26C
:1051800012FB03F3FB81FB78203BFB7000237B8247
:105190009EE0BB78942B0BD1FA787B8A524940F27F
:1051A0007E5000FB02F20A4413441B78FB8225E088
:1051B000BB78102B08D1FA787B8A4C4912010A443B
:1051C00013441B78FB8219E0BB78182B0BD1FA78BB
:1051D000798A47481346DB0013449B0003440B4481
:1051E0001B78FB820AE0BB78202B77D1FA787B8A88
:1051F000404992010A4413441B78FB820023BB827E
:105200005EE0FB8A03F08003002B06D0B988FB88A0
:10521000BA6A1846FDF700F933E0BA8813461B0155
:105220009B1A5B011A46FB8813445B001A46324BFB
:105230001A60314B1B681946304801F0BBFA2E4BFF
:105240001B68013319462E4801F0B4FA2B4B5B78EA
:105250009AB22C4B1A802B4B1B881B029AB2274BFD
:105260001B789BB213449AB2264B1A80FB880133F9
:1052700098B2BB8801339BB2224A12881946FDF7C7
:10528000CBF8FB8A5B00FB82BB880133BB801E4BE3
:105290005B88BA889A4223D2BA883B8AD21ABB78F2
:1052A0009A420AD13B8ABB80FB880133FB80164BB4
:1052B0001B88FA889A4207D313E0BB8A0133BB826A
:1052C000BB8A072B9DD900E000BF7B8A01337B821C
:1052D0007A8AFB899A42FFF45CAF02E000BF00E0EB
:1052E00000BF1C37BD4690BDA09D02089472020805
:1052F00084780208E08502082402002028020020A9
:10530000290200202A020020802B022090B587B0BD
:1053100002AF0446084611461A462346FB80034660
:10532000BB800B467B8013463B80FB88FB817A88E1
:10533000FB8813447B803A88BB8813443B8028E079
:10534000FA887B889A4207D3FB89FB8097F8203044
:105350009AB2BB881344BB80BA883B889A4221D258
:105360007B6A1A7897F82040B988F88897F82C302B
:105370000193BB6A00932346FFF7DEFE97F82030C7
:105380005B08DBB29AB2FB881344FB807B6A013373
:105390007B627B6A1B78292B05D87B6A1B781F2BC5
:1053A000CED800E000BF00BF1437BD4690BD90B519
:1053B00087B002AF0446084611461A462346FB80D2
:1053C0000346BB800B467B8013463B80FB88FB7308
:1053D0007A88FB8813447B803A88BB8813443B80DF
:1053E00026E0FA887B889A4207D3FB7BFB8097F8FC
:1053F00020309AB2BB881344BB80BA883B889A425B
:105400001FD27B6A1A7897F82040B988F88897F8F5
:10541000283000932346FFF795FD97F820305B086E
:10542000DBB29AB2FB881344FB807B6A01337B6258
:105430007B6A1B787E2B05D87B6A1B781F2BD0D804
:1054400000E000BF00BF1437BD4690BD80B582B0FC
:1054500000AF7860391D4FF0FF330122034807F099
:1054600084F87B6818460837BD4680BD1C2E022094
:1054700080B500AF01F0E6F900F01AF8FCF746FB42
:1054800000F04EFE00F076FEFCF746FC00F0CCF992
:10549000FBF786FDFBF78CFE00F0C2FC00F06EFC13
:1054A00008F0CAF9FBF756FF08F0EAF9FEE700003A
:1054B00080B594B000AF07F12003302200211846D8
:1054C0001AF040FF07F10C0300221A605A609A603C
:1054D000DA601A610023BB602B4B1B6C2A4A43F035
:1054E00080531364284B1B6C03F08053BB60BB6874
:1054F00000237B60254B1B68244A43F44043136020
:10550000224B1B6803F440437B607B6802233B62B1
:105510000123FB6210233B630223BB630023FB6375
:1055200008233B64B4237B640223BB640423FB6431
:1055300007F12003184604F02BFA0346002B01D094
:1055400000F038F804F0D4F90346002B01D000F045
:1055500031F80F23FB6002233B6100237B614FF492
:10556000A053BB614FF48053FB6107F10C0305218D
:10557000184604F085FC0346002B01D000F01AF811
:1055800000BF5037BD4680BD00380240007000406B
:1055900080B582B000AF78607B681B68044A934294
:1055A00001D101F071F900BF0837BD4680BD00BFD1
:1055B0000000014080B400AF72B600BFFEE70000FB
:1055C00090B484B000AF0446084611461A462346FC
:1055D000FB710346BB710B467B7113467B807A8857
:1055E00013465B0013445B0103F53473214A1344F3
:1055F000BB600023FB8134E0BA79FB8902FA03F334
:1056000003F08003002B01D0962200E03222FB89B8
:105610009B00B9680B441A60FA79FB8902FA03F31C
:1056200003F08003002B01D0962200E03222FB8998
:1056300008339B00B9680B441A607A79FB8902FA37
:1056400003F303F08003002B01D0962200E0322206
:10565000FB8910339B00B9680B441A60FB89013346
:10566000FB81FB89072BC7D900BF00BF1037BD46A0
:1056700090BC70472C02002080B584B000AF034678
:10568000FB710F4805F0E8FB0023FB7309E0FB7B8F
:105690009BB2002200210020FFF792FFFB7B013329
:1056A000FB73FA7BFB799A42F1D340F6F433054A57
:1056B0000421054805F002FD00BF1037BD4680BD3E
:1056C000D02D02202C020020782D022080B584B03D
:1056D00000AF0346FB710023FB7309E0FB7B9BB229
:1056E000222200210020FFF76BFFFB7B0133FB73BD
:1056F000FA7BFB799A42F1D340F6F433044A042151
:10570000044805F0DBFC00BF1037BD4680BD00BF7C
:105710002C020020782D022080B584B000AF034613
:10572000FB710023FB7309E0FB7B9BB2002200218D
:105730002220FFF745FFFB7B0133FB73FA7BFB79EC
:105740009A42F1D340F6F433044A0421044805F0A8
:10575000B5FC00BF1037BD4680BD00BF2C02002045
:10576000782D022080B584B000AF0346FB71002382
:10577000FB7309E0FB7B9BB2002222210020FFF794
:105780001FFFFB7B0133FB73FA7BFB799A42F1D35A
:1057900040F6F433044A0421044805F08FFC00BFAE
:1057A0001037BD4680BD00BF2C020020782D02209E
:1057B00080B500AF7820FFF7AFFF184A13780121BA
:1057C00061F3010313704FF4C87008F026F97820D4
:1057D000FFF7C8FF114A1378012161F383031370A7
:1057E0004FF4C87008F019F97820FFF76FFF0B4AE3
:1057F0001378012161F305131370094B1B685B6A71
:10580000DAB2084B1A70064B1B6800225A624FF43A
:10581000C87008F002F900BF80BD00BF1C2B022039
:10582000D02D0220FC31002080B500AF174B184A64
:105830001A60164B4FF482725A60144B00229A6021
:10584000124B0022DA60114B00221A610F4B00222A
:105850005A610E4B4FF400729A610C4B0022DA61D0
:105860000A4B00221A62094B00225A62074B00229F
:105870009A62064B0A22DA62044804F003FD0346EA
:10588000002B01D0FFF796FE00BF80BD902B0220B9
:105890000038004080B58AB000AF786007F114038B
:1058A00000221A605A609A60DA601A617B681B688D
:1058B000514A934240F09B8000233B614F4B1B6C4D
:1058C0004E4A43F4804313644C4B1B6C03F48043F7
:1058D0003B613B690023FB60484B1B6B474A43F02D
:1058E00002031363454B1B6B03F00203FB60FB6871
:1058F0004FF460437B610223BB610023FB61032300
:105900003B6205237B6207F1140319463C4802F011
:1059100019FE3C4B3C4A1A603A4B00225A60394B04
:1059200040229A60374B0022DA60364B4FF4806297
:105930001A61344B00225A61324B00229A61314B7A
:105940000022DA612F4B4FF440321A622D4B0422B1
:105950005A622C4B03229A622A4B0022DA62294BAC
:1059600000221A63274801F0B5F80346002B01D046
:10597000FFF720FE7B68234A9A64224A7B68936380
:10598000224B234A1A60214B00225A601F4B0022EF
:105990009A601E4B0022DA601C4B4FF480621A6141
:1059A0001A4B00225A61194B00229A61174B0022B0
:1059B000DA61164B4FF440321A62144B04225A62D9
:1059C000124B03229A62114B0022DA620F4B002223
:1059D0001A630E4801F07EF80346002B01D0FFF752
:1059E000E9FD7B68094ADA64084A7B68936300BF73
:1059F0002837BD4680BD00BF003800400038024057
:105A000000040240702C022070600240102C022022
:105A10005860024080B582B000AF00237B60124B1B
:105A20005B6C114A43F4804353640F4B5B6C03F48B
:105A300080437B607B6800233B600B4B1B6C0A4AF6
:105A400043F080531364084B1B6C03F080533B609E
:105A50003B6800220F216FF0010001F011F800BF38
:105A60000837BD4680BD00BF0038024080B58CB00D
:105A700000AF78600023FB620023BB6200227968DC
:105A8000192000F0FDFF192001F016F80023FB603B
:105A90001F4B5B6C1E4A43F0010353641C4B5B6C51
:105AA00003F00103FB60FB6807F1100207F1140328
:105AB0001146184604F0B4FB04F09EFB03465B005D
:105AC000FB62FB6A134AA2FB03239B0C013BBB62F4
:105AD000114B124A1A60104B40F2E732DA600E4A5C
